{
  "contractName": "OwnedRegistrant",
  "abi": [
    {
      "inputs": [
        {
          "internalType": "address",
          "name": "_owner",
          "type": "address"
        }
      ],
      "stateMutability": "nonpayable",
      "type": "constructor"
    },
    {
      "anonymous": false,
      "inputs": [
        {
          "indexed": true,
          "internalType": "address",
          "name": "previousOwner",
          "type": "address"
        },
        {
          "indexed": true,
          "internalType": "address",
          "name": "newOwner",
          "type": "address"
        }
      ],
      "name": "OwnershipTransferStarted",
      "type": "event"
    },
    {
      "anonymous": false,
      "inputs": [
        {
          "indexed": true,
          "internalType": "address",
          "name": "previousOwner",
          "type": "address"
        },
        {
          "indexed": true,
          "internalType": "address",
          "name": "newOwner",
          "type": "address"
        }
      ],
      "name": "OwnershipTransferred",
      "type": "event"
    },
    {
      "inputs": [],
      "name": "acceptOwnership",
      "outputs": [],
      "stateMutability": "nonpayable",
      "type": "function"
    },
    {
      "inputs": [],
      "name": "owner",
      "outputs": [
        {
          "internalType": "address",
          "name": "",
          "type": "address"
        }
      ],
      "stateMutability": "view",
      "type": "function"
    },
    {
      "inputs": [],
      "name": "pendingOwner",
      "outputs": [
        {
          "internalType": "address",
          "name": "",
          "type": "address"
        }
      ],
      "stateMutability": "view",
      "type": "function"
    },
    {
      "inputs": [],
      "name": "renounceOwnership",
      "outputs": [],
      "stateMutability": "nonpayable",
      "type": "function"
    },
    {
      "inputs": [
        {
          "internalType": "address",
          "name": "newOwner",
          "type": "address"
        }
      ],
      "name": "transferOwnership",
      "outputs": [],
      "stateMutability": "nonpayable",
      "type": "function"
    }
  ],
  "bytecode": "0x608060405234801561000f575f80fd5b506040516104f03803806104f083398101604081905261002e916101de565b610037336100a5565b604051632210724360e11b81523060048201526daaeb6d7670e522a718067333cd4e90634420e486906024015f604051808303815f87803b15801561007a575f80fd5b505af115801561008c573d5f803e3d5ffd5b5050505061009f816100c160201b60201c565b5061020b565b600180546001600160a01b03191690556100be81610130565b50565b6100c961017f565b600180546001600160a01b0319166001600160a01b0383169081179091556100f85f546001600160a01b031690565b6001600160a01b03167f38d16b8cac22d99fc7c124b9cd0de2d3fa1faef420bfe791d8c362d765e2270060405160405180910390a350565b5f80546001600160a01b038381166001600160a01b0319831681178455604051919092169283917f8be0079c531659141344cd1fd0a4f28419497f9722a3daafe3b4186f6b6457e09190a35050565b5f546001600160a01b031633146101dc5760405162461bcd60e51b815260206004820181905260248201527f4f776e61626c653a2063616c6c6572206973206e6f7420746865206f776e6572604482015260640160405180910390fd5b565b5f602082840312156101ee575f80fd5b81516001600160a01b0381168114610204575f80fd5b9392505050565b6102d8806102185f395ff3fe608060405234801561000f575f80fd5b5060043610610055575f3560e01c8063715018a61461005957806379ba5097146100635780638da5cb5b1461006b578063e30c397814610093578063f2fde38b146100a4575b5f80fd5b6100616100b7565b005b6100616100ca565b5f546001600160a01b03165b6040516001600160a01b03909116815260200160405180910390f35b6001546001600160a01b0316610077565b6100616100b2366004610275565b610149565b6100bf6101b9565b6100c85f610212565b565b60015433906001600160a01b0316811461013d5760405162461bcd60e51b815260206004820152602960248201527f4f776e61626c6532537465703a2063616c6c6572206973206e6f7420746865206044820152683732bb9037bbb732b960b91b60648201526084015b60405180910390fd5b61014681610212565b50565b6101516101b9565b600180546001600160a01b0383166001600160a01b031990911681179091556101815f546001600160a01b031690565b6001600160a01b03167f38d16b8cac22d99fc7c124b9cd0de2d3fa1faef420bfe791d8c362d765e2270060405160405180910390a350565b5f546001600160a01b031633146100c85760405162461bcd60e51b815260206004820181905260248201527f4f776e61626c653a2063616c6c6572206973206e6f7420746865206f776e65726044820152606401610134565b600180546001600160a01b0319169055610146815f80546001600160a01b038381166001600160a01b0319831681178455604051919092169283917f8be0079c531659141344cd1fd0a4f28419497f9722a3daafe3b4186f6b6457e09190a35050565b5f60208284031215610285575f80fd5b81356001600160a01b038116811461029b575f80fd5b939250505056fea2646970667358221220c509f11d27c74c85e3dc7fdf40476371fcca45fb3948f11a1305c6c776a509ea64736f6c63430008150033",
  "immutableReferences": {},
  "source": "// SPDX-License-Identifier: MIT\npragma solidity ^0.8.13;\n\nimport {IOperatorFilterRegistry} from \"./IOperatorFilterRegistry.sol\";\nimport \"@openzeppelin/contracts/access/Ownable2Step.sol\";\n\naddress constant CANONICAL_OPERATOR_FILTER_REGISTRY_ADDRESS = 0x000000000000AAeB6D7670E522A718067333cd4E;\naddress constant CANONICAL_CORI_SUBSCRIPTION = 0x3cc6CddA760b79bAfa08dF41ECFA224f810dCeB6;\n\n/**\n * @title  OwnedRegistrant\n * @notice Ownable contract that registers itself with the OperatorFilterRegistry and administers its own entries,\n *         to facilitate a subscription whose ownership can be transferred.\n */\n\ncontract OwnedRegistrant is Ownable2Step {\n    /// @dev The constructor that is called when the contract is being deployed.\n    constructor(address _owner) {\n        IOperatorFilterRegistry(CANONICAL_OPERATOR_FILTER_REGISTRY_ADDRESS)\n            .register(address(this));\n        transferOwnership(_owner);\n    }\n}\n",
  "sourcePath": "/Users/atlas-ryan/Downloads/projects/serial-killers-contract/contracts/default_operator_contracts/OwnedRegistrant.sol",
  "compiler": {
    "name": "solc",
    "version": "0.8.21+commit.d9974bed.Emscripten.clang"
  },
  "schemaVersion": "3.4.13",
  "updatedAt": "2023-08-19T19:16:06.998Z",
  "devdoc": {
    "kind": "dev",
    "methods": {
      "acceptOwnership()": {
        "details": "The new owner accepts the ownership transfer."
      },
      "constructor": {
        "details": "The constructor that is called when the contract is being deployed."
      },
      "owner()": {
        "details": "Returns the address of the current owner."
      },
      "pendingOwner()": {
        "details": "Returns the address of the pending owner."
      },
      "renounceOwnership()": {
        "details": "Leaves the contract without owner. It will not be possible to call `onlyOwner` functions. Can only be called by the current owner. NOTE: Renouncing ownership will leave the contract without an owner, thereby disabling any functionality that is only available to the owner."
      },
      "transferOwnership(address)": {
        "details": "Starts the ownership transfer of the contract to a new account. Replaces the pending transfer if there is one. Can only be called by the current owner."
      }
    },
    "title": "OwnedRegistrant",
    "version": 1
  },
  "userdoc": {
    "kind": "user",
    "methods": {},
    "notice": "Ownable contract that registers itself with the OperatorFilterRegistry and administers its own entries,         to facilitate a subscription whose ownership can be transferred.",
    "version": 1
  }
}