{
  "contractName": "WDCSerialKillers",
  "abi": [
    {
      "inputs": [
        {
          "internalType": "string",
          "name": "_URI",
          "type": "string"
        }
      ],
      "stateMutability": "nonpayable",
      "type": "constructor"
    },
    {
      "inputs": [
        {
          "internalType": "address",
          "name": "operator",
          "type": "address"
        }
      ],
      "name": "OperatorNotAllowed",
      "type": "error"
    },
    {
      "anonymous": false,
      "inputs": [
        {
          "indexed": true,
          "internalType": "address",
          "name": "account",
          "type": "address"
        },
        {
          "indexed": true,
          "internalType": "address",
          "name": "operator",
          "type": "address"
        },
        {
          "indexed": false,
          "internalType": "bool",
          "name": "approved",
          "type": "bool"
        }
      ],
      "name": "ApprovalForAll",
      "type": "event"
    },
    {
      "anonymous": false,
      "inputs": [
        {
          "indexed": true,
          "internalType": "bytes32",
          "name": "role",
          "type": "bytes32"
        },
        {
          "indexed": true,
          "internalType": "bytes32",
          "name": "previousAdminRole",
          "type": "bytes32"
        },
        {
          "indexed": true,
          "internalType": "bytes32",
          "name": "newAdminRole",
          "type": "bytes32"
        }
      ],
      "name": "RoleAdminChanged",
      "type": "event"
    },
    {
      "anonymous": false,
      "inputs": [
        {
          "indexed": true,
          "internalType": "bytes32",
          "name": "role",
          "type": "bytes32"
        },
        {
          "indexed": true,
          "internalType": "address",
          "name": "account",
          "type": "address"
        },
        {
          "indexed": true,
          "internalType": "address",
          "name": "sender",
          "type": "address"
        }
      ],
      "name": "RoleGranted",
      "type": "event"
    },
    {
      "anonymous": false,
      "inputs": [
        {
          "indexed": true,
          "internalType": "bytes32",
          "name": "role",
          "type": "bytes32"
        },
        {
          "indexed": true,
          "internalType": "address",
          "name": "account",
          "type": "address"
        },
        {
          "indexed": true,
          "internalType": "address",
          "name": "sender",
          "type": "address"
        }
      ],
      "name": "RoleRevoked",
      "type": "event"
    },
    {
      "anonymous": false,
      "inputs": [
        {
          "indexed": false,
          "internalType": "uint256[]",
          "name": "_tokenIds",
          "type": "uint256[]"
        }
      ],
      "name": "TokensUpdated",
      "type": "event"
    },
    {
      "anonymous": false,
      "inputs": [
        {
          "indexed": true,
          "internalType": "address",
          "name": "operator",
          "type": "address"
        },
        {
          "indexed": true,
          "internalType": "address",
          "name": "from",
          "type": "address"
        },
        {
          "indexed": true,
          "internalType": "address",
          "name": "to",
          "type": "address"
        },
        {
          "indexed": false,
          "internalType": "uint256[]",
          "name": "ids",
          "type": "uint256[]"
        },
        {
          "indexed": false,
          "internalType": "uint256[]",
          "name": "values",
          "type": "uint256[]"
        }
      ],
      "name": "TransferBatch",
      "type": "event"
    },
    {
      "anonymous": false,
      "inputs": [
        {
          "indexed": true,
          "internalType": "address",
          "name": "operator",
          "type": "address"
        },
        {
          "indexed": true,
          "internalType": "address",
          "name": "from",
          "type": "address"
        },
        {
          "indexed": true,
          "internalType": "address",
          "name": "to",
          "type": "address"
        },
        {
          "indexed": false,
          "internalType": "uint256",
          "name": "id",
          "type": "uint256"
        },
        {
          "indexed": false,
          "internalType": "uint256",
          "name": "value",
          "type": "uint256"
        }
      ],
      "name": "TransferSingle",
      "type": "event"
    },
    {
      "anonymous": false,
      "inputs": [
        {
          "indexed": false,
          "internalType": "string",
          "name": "value",
          "type": "string"
        },
        {
          "indexed": true,
          "internalType": "uint256",
          "name": "id",
          "type": "uint256"
        }
      ],
      "name": "URI",
      "type": "event"
    },
    {
      "anonymous": false,
      "inputs": [
        {
          "indexed": false,
          "internalType": "uint256",
          "name": "_amount",
          "type": "uint256"
        }
      ],
      "name": "Withdraw",
      "type": "event"
    },
    {
      "inputs": [],
      "name": "CONTRACT_MANAGER",
      "outputs": [
        {
          "internalType": "bytes32",
          "name": "",
          "type": "bytes32"
        }
      ],
      "stateMutability": "view",
      "type": "function",
      "constant": true
    },
    {
      "inputs": [],
      "name": "DEFAULT_ADMIN_ROLE",
      "outputs": [
        {
          "internalType": "bytes32",
          "name": "",
          "type": "bytes32"
        }
      ],
      "stateMutability": "view",
      "type": "function",
      "constant": true
    },
    {
      "inputs": [],
      "name": "OPERATOR_FILTER_REGISTRY",
      "outputs": [
        {
          "internalType": "contract IOperatorFilterRegistry",
          "name": "",
          "type": "address"
        }
      ],
      "stateMutability": "view",
      "type": "function",
      "constant": true
    },
    {
      "inputs": [
        {
          "internalType": "address",
          "name": "account",
          "type": "address"
        },
        {
          "internalType": "uint256",
          "name": "id",
          "type": "uint256"
        }
      ],
      "name": "balanceOf",
      "outputs": [
        {
          "internalType": "uint256",
          "name": "",
          "type": "uint256"
        }
      ],
      "stateMutability": "view",
      "type": "function",
      "constant": true
    },
    {
      "inputs": [
        {
          "internalType": "address[]",
          "name": "accounts",
          "type": "address[]"
        },
        {
          "internalType": "uint256[]",
          "name": "ids",
          "type": "uint256[]"
        }
      ],
      "name": "balanceOfBatch",
      "outputs": [
        {
          "internalType": "uint256[]",
          "name": "",
          "type": "uint256[]"
        }
      ],
      "stateMutability": "view",
      "type": "function",
      "constant": true
    },
    {
      "inputs": [
        {
          "internalType": "address",
          "name": "account",
          "type": "address"
        },
        {
          "internalType": "uint256",
          "name": "id",
          "type": "uint256"
        },
        {
          "internalType": "uint256",
          "name": "value",
          "type": "uint256"
        }
      ],
      "name": "burn",
      "outputs": [],
      "stateMutability": "nonpayable",
      "type": "function"
    },
    {
      "inputs": [
        {
          "internalType": "address",
          "name": "account",
          "type": "address"
        },
        {
          "internalType": "uint256[]",
          "name": "ids",
          "type": "uint256[]"
        },
        {
          "internalType": "uint256[]",
          "name": "values",
          "type": "uint256[]"
        }
      ],
      "name": "burnBatch",
      "outputs": [],
      "stateMutability": "nonpayable",
      "type": "function"
    },
    {
      "inputs": [
        {
          "internalType": "uint256",
          "name": "id",
          "type": "uint256"
        }
      ],
      "name": "exists",
      "outputs": [
        {
          "internalType": "bool",
          "name": "",
          "type": "bool"
        }
      ],
      "stateMutability": "view",
      "type": "function",
      "constant": true
    },
    {
      "inputs": [
        {
          "internalType": "bytes32",
          "name": "role",
          "type": "bytes32"
        }
      ],
      "name": "getRoleAdmin",
      "outputs": [
        {
          "internalType": "bytes32",
          "name": "",
          "type": "bytes32"
        }
      ],
      "stateMutability": "view",
      "type": "function",
      "constant": true
    },
    {
      "inputs": [
        {
          "internalType": "bytes32",
          "name": "role",
          "type": "bytes32"
        },
        {
          "internalType": "uint256",
          "name": "index",
          "type": "uint256"
        }
      ],
      "name": "getRoleMember",
      "outputs": [
        {
          "internalType": "address",
          "name": "",
          "type": "address"
        }
      ],
      "stateMutability": "view",
      "type": "function",
      "constant": true
    },
    {
      "inputs": [
        {
          "internalType": "bytes32",
          "name": "role",
          "type": "bytes32"
        }
      ],
      "name": "getRoleMemberCount",
      "outputs": [
        {
          "internalType": "uint256",
          "name": "",
          "type": "uint256"
        }
      ],
      "stateMutability": "view",
      "type": "function",
      "constant": true
    },
    {
      "inputs": [
        {
          "internalType": "bytes32",
          "name": "role",
          "type": "bytes32"
        },
        {
          "internalType": "address",
          "name": "account",
          "type": "address"
        }
      ],
      "name": "grantRole",
      "outputs": [],
      "stateMutability": "nonpayable",
      "type": "function"
    },
    {
      "inputs": [
        {
          "internalType": "bytes32",
          "name": "role",
          "type": "bytes32"
        },
        {
          "internalType": "address",
          "name": "account",
          "type": "address"
        }
      ],
      "name": "hasRole",
      "outputs": [
        {
          "internalType": "bool",
          "name": "",
          "type": "bool"
        }
      ],
      "stateMutability": "view",
      "type": "function",
      "constant": true
    },
    {
      "inputs": [
        {
          "internalType": "address",
          "name": "account",
          "type": "address"
        },
        {
          "internalType": "address",
          "name": "operator",
          "type": "address"
        }
      ],
      "name": "isApprovedForAll",
      "outputs": [
        {
          "internalType": "bool",
          "name": "",
          "type": "bool"
        }
      ],
      "stateMutability": "view",
      "type": "function",
      "constant": true
    },
    {
      "inputs": [
        {
          "internalType": "bytes32",
          "name": "role",
          "type": "bytes32"
        },
        {
          "internalType": "address",
          "name": "account",
          "type": "address"
        }
      ],
      "name": "renounceRole",
      "outputs": [],
      "stateMutability": "nonpayable",
      "type": "function"
    },
    {
      "inputs": [
        {
          "internalType": "bytes32",
          "name": "role",
          "type": "bytes32"
        },
        {
          "internalType": "address",
          "name": "account",
          "type": "address"
        }
      ],
      "name": "revokeRole",
      "outputs": [],
      "stateMutability": "nonpayable",
      "type": "function"
    },
    {
      "inputs": [
        {
          "internalType": "address",
          "name": "operator",
          "type": "address"
        },
        {
          "internalType": "bool",
          "name": "approved",
          "type": "bool"
        }
      ],
      "name": "setApprovalForAll",
      "outputs": [],
      "stateMutability": "nonpayable",
      "type": "function"
    },
    {
      "inputs": [
        {
          "internalType": "uint256",
          "name": "tokenId",
          "type": "uint256"
        }
      ],
      "name": "tokenData",
      "outputs": [
        {
          "internalType": "uint256",
          "name": "maxSupply",
          "type": "uint256"
        },
        {
          "internalType": "uint256",
          "name": "price",
          "type": "uint256"
        }
      ],
      "stateMutability": "view",
      "type": "function",
      "constant": true
    },
    {
      "inputs": [
        {
          "internalType": "uint256",
          "name": "id",
          "type": "uint256"
        }
      ],
      "name": "totalSupply",
      "outputs": [
        {
          "internalType": "uint256",
          "name": "",
          "type": "uint256"
        }
      ],
      "stateMutability": "view",
      "type": "function",
      "constant": true
    },
    {
      "inputs": [
        {
          "internalType": "uint256",
          "name": "",
          "type": "uint256"
        }
      ],
      "name": "uri",
      "outputs": [
        {
          "internalType": "string",
          "name": "",
          "type": "string"
        }
      ],
      "stateMutability": "view",
      "type": "function",
      "constant": true
    },
    {
      "inputs": [
        {
          "internalType": "uint256[]",
          "name": "_ids",
          "type": "uint256[]"
        },
        {
          "internalType": "uint256[]",
          "name": "_amounts",
          "type": "uint256[]"
        }
      ],
      "name": "publicSale",
      "outputs": [],
      "stateMutability": "payable",
      "type": "function",
      "payable": true
    },
    {
      "inputs": [
        {
          "internalType": "uint256[]",
          "name": "_ids",
          "type": "uint256[]"
        },
        {
          "internalType": "uint256[]",
          "name": "_amounts",
          "type": "uint256[]"
        }
      ],
      "name": "presale",
      "outputs": [],
      "stateMutability": "payable",
      "type": "function",
      "payable": true
    },
    {
      "inputs": [
        {
          "internalType": "enum WDCSerialKillers.ContractState",
          "name": "_state",
          "type": "uint8"
        }
      ],
      "name": "setContractState",
      "outputs": [],
      "stateMutability": "nonpayable",
      "type": "function"
    },
    {
      "inputs": [
        {
          "internalType": "address payable",
          "name": "_destination",
          "type": "address"
        }
      ],
      "name": "withdraw",
      "outputs": [],
      "stateMutability": "nonpayable",
      "type": "function"
    },
    {
      "inputs": [
        {
          "internalType": "string",
          "name": "_baseURI",
          "type": "string"
        }
      ],
      "name": "setURI",
      "outputs": [],
      "stateMutability": "nonpayable",
      "type": "function"
    },
    {
      "inputs": [
        {
          "components": [
            {
              "internalType": "uint256",
              "name": "maxSupply",
              "type": "uint256"
            },
            {
              "internalType": "uint256",
              "name": "price",
              "type": "uint256"
            }
          ],
          "internalType": "struct WDCSerialKillers.TokenData[]",
          "name": "_tokenData",
          "type": "tuple[]"
        },
        {
          "internalType": "uint256[]",
          "name": "_tokenIds",
          "type": "uint256[]"
        }
      ],
      "name": "setTokenData",
      "outputs": [],
      "stateMutability": "nonpayable",
      "type": "function"
    },
    {
      "inputs": [
        {
          "internalType": "uint256[]",
          "name": "_ids",
          "type": "uint256[]"
        }
      ],
      "name": "getSupply",
      "outputs": [
        {
          "internalType": "uint256[]",
          "name": "supplies",
          "type": "uint256[]"
        }
      ],
      "stateMutability": "view",
      "type": "function",
      "constant": true
    },
    {
      "inputs": [
        {
          "internalType": "address",
          "name": "from",
          "type": "address"
        },
        {
          "internalType": "address",
          "name": "to",
          "type": "address"
        },
        {
          "internalType": "uint256[]",
          "name": "ids",
          "type": "uint256[]"
        },
        {
          "internalType": "uint256[]",
          "name": "amounts",
          "type": "uint256[]"
        },
        {
          "internalType": "bytes",
          "name": "data",
          "type": "bytes"
        }
      ],
      "name": "safeBatchTransferFrom",
      "outputs": [],
      "stateMutability": "nonpayable",
      "type": "function"
    },
    {
      "inputs": [
        {
          "internalType": "address",
          "name": "from",
          "type": "address"
        },
        {
          "internalType": "address",
          "name": "to",
          "type": "address"
        },
        {
          "internalType": "uint256",
          "name": "tokenId",
          "type": "uint256"
        },
        {
          "internalType": "uint256",
          "name": "amount",
          "type": "uint256"
        },
        {
          "internalType": "bytes",
          "name": "data",
          "type": "bytes"
        }
      ],
      "name": "safeTransferFrom",
      "outputs": [],
      "stateMutability": "nonpayable",
      "type": "function"
    },
    {
      "inputs": [
        {
          "internalType": "bytes4",
          "name": "interfaceId",
          "type": "bytes4"
        }
      ],
      "name": "supportsInterface",
      "outputs": [
        {
          "internalType": "bool",
          "name": "",
          "type": "bool"
        }
      ],
      "stateMutability": "view",
      "type": "function",
      "constant": true
    }
  ],
  "bytecode": "0x608060405234801562000010575f80fd5b506040516200394938038062003949833981016040819052620000339162000330565b733cc6cdda760b79bafa08df41ecfa224f810dceb66001826200005681620001d4565b506daaeb6d7670e522a718067333cd4e3b1562000192578015620000e557604051633e9f1edf60e11b81523060048201526001600160a01b03831660248201526daaeb6d7670e522a718067333cd4e90637d3e3dbe906044015b5f604051808303815f87803b158015620000c8575f80fd5b505af1158015620000db573d5f803e3d5ffd5b5050505062000192565b6001600160a01b03821615620001365760405163a0af290360e01b81523060048201526001600160a01b03831660248201526daaeb6d7670e522a718067333cd4e9063a0af290390604401620000b0565b604051632210724360e11b81523060048201526daaeb6d7670e522a718067333cd4e90634420e486906024015f604051808303815f87803b1580156200017a575f80fd5b505af11580156200018d573d5f803e3d5ffd5b505050505b50620001a190505f33620001e6565b620001cd7f9aa032fddc5828092899c540d004a5a5ff64ae9e644e14e3e1589b650db53b9e33620001e6565b5062000551565b6004620001e2828262000489565b5050565b620001f2828262000210565b5f8281526001602052604090206200020b9082620002ae565b505050565b5f828152602081815260408083206001600160a01b038516845290915290205460ff16620001e2575f828152602081815260408083206001600160a01b03851684529091529020805460ff191660011790556200026a3390565b6001600160a01b0316816001600160a01b0316837f2f8788117e7eff1d82e926ec794901d17c78024a50270940304540a733656f0d60405160405180910390a45050565b5f620002c4836001600160a01b038416620002cd565b90505b92915050565b5f8181526001830160205260408120546200031457508154600181810184555f848152602080822090930184905584548482528286019093526040902091909155620002c7565b505f620002c7565b634e487b7160e01b5f52604160045260245ffd5b5f602080838503121562000342575f80fd5b82516001600160401b038082111562000359575f80fd5b818501915085601f8301126200036d575f80fd5b8151818111156200038257620003826200031c565b604051601f8201601f19908116603f01168101908382118183101715620003ad57620003ad6200031c565b816040528281528886848701011115620003c5575f80fd5b5f93505b82841015620003e85784840186015181850187015292850192620003c9565b5f86848301015280965050505050505092915050565b600181811c908216806200041357607f821691505b6020821081036200043257634e487b7160e01b5f52602260045260245ffd5b50919050565b601f8211156200020b575f81815260208120601f850160051c81016020861015620004605750805b601f850160051c820191505b8181101562000481578281556001016200046c565b505050505050565b81516001600160401b03811115620004a557620004a56200031c565b620004bd81620004b68454620003fe565b8462000438565b602080601f831160018114620004f3575f8415620004db5750858301515b5f19600386901b1c1916600185901b17855562000481565b5f85815260208120601f198616915b82811015620005235788860151825594840194600190910190840162000502565b50858210156200054157878501515f19600388901b60f8161c191681555b5050505050600190811b01905550565b6133ea806200055f5f395ff3fe6080604052600436106101c4575f3560e01c80636b20c454116100f2578063bd85b03911610092578063f242432a11610062578063f242432a1461059d578063f5298aca146105bc578063f7b4c187146105db578063ff2b6168146105fa575f80fd5b8063bd85b039146104ed578063ca15c87314610518578063d547741f14610537578063e985e9c514610556575f80fd5b8063a217fddf116100cd578063a217fddf14610454578063a22cb46514610467578063a62f1f4014610486578063b4b5b48f146104a6575f80fd5b80636b20c454146103f75780639010d07c1461041657806391d1485414610435575f80fd5b806336568abe116101685780634f558e79116101385780634f558e791461037957806351cff8d9146103a65780635b927fa1146103c557806362f29bdd146103d8575f80fd5b806336568abe146102e257806336d5a8921461030157806341f43434146103145780634e1273f41461034d575f80fd5b80630e89341c116101a35780630e89341c1461024a578063248a9ca3146102765780632eb2c2d6146102a45780632f2ff15d146102c3575f80fd5b8062fdd58e146101c857806301ffc9a7146101fa57806302fe530514610229575b5f80fd5b3480156101d3575f80fd5b506101e76101e23660046125a1565b610619565b6040519081526020015b60405180910390f35b348015610205575f80fd5b506102196102143660046125e0565b6106b2565b60405190151581526020016101f1565b348015610234575f80fd5b506102486102433660046126ba565b6106cb565b005b348015610255575f80fd5b50610269610264366004612706565b6106ef565b6040516101f1919061276a565b348015610281575f80fd5b506101e7610290366004612706565b5f9081526020819052604090206001015490565b3480156102af575f80fd5b506102486102be36600461282a565b610781565b3480156102ce575f80fd5b506102486102dd3660046128d0565b6107b0565b3480156102ed575f80fd5b506102486102fc3660046128d0565b6107d9565b61024861030f366004612945565b610853565b34801561031f575f80fd5b506103356daaeb6d7670e522a718067333cd4e81565b6040516001600160a01b0390911681526020016101f1565b348015610358575f80fd5b5061036c6103673660046129ab565b610ae0565b6040516101f19190612aaa565b348015610384575f80fd5b50610219610393366004612706565b5f90815260056020526040902054151590565b3480156103b1575f80fd5b506102486103c0366004612abc565b610c07565b6102486103d3366004612945565b610c84565b3480156103e3575f80fd5b506102486103f2366004612ad7565b610f27565b348015610402575f80fd5b50610248610411366004612baf565b611110565b348015610421575f80fd5b50610335610430366004612c1f565b611153565b348015610440575f80fd5b5061021961044f3660046128d0565b611171565b34801561045f575f80fd5b506101e75f81565b348015610472575f80fd5b50610248610481366004612c4c565b611199565b348015610491575f80fd5b506101e75f8051602061339583398151915281565b3480156104b1575f80fd5b506104d86104c0366004612706565b60076020525f90815260409020805460019091015482565b604080519283526020830191909152016101f1565b3480156104f8575f80fd5b506101e7610507366004612706565b5f9081526005602052604090205490565b348015610523575f80fd5b506101e7610532366004612706565b6111a4565b348015610542575f80fd5b506102486105513660046128d0565b6111ba565b348015610561575f80fd5b50610219610570366004612c78565b6001600160a01b039182165f90815260036020908152604080832093909416825291909152205460ff1690565b3480156105a8575f80fd5b506102486105b7366004612ca4565b6111de565b3480156105c7575f80fd5b506102486105d6366004612d07565b611205565b3480156105e6575f80fd5b506102486105f5366004612d39565b611248565b348015610605575f80fd5b5061036c610614366004612d57565b611287565b5f6001600160a01b0383166106885760405162461bcd60e51b815260206004820152602a60248201527f455243313135353a2061646472657373207a65726f206973206e6f742061207660448201526930b634b21037bbb732b960b11b60648201526084015b60405180910390fd5b505f8181526002602090815260408083206001600160a01b03861684529091529020545b92915050565b5f6106bc8261131a565b806106ac57506106ac82611354565b5f805160206133958339815191526106e281611378565b6106eb82611385565b5050565b6060600480546106fe90612d95565b80601f016020809104026020016040519081016040528092919081815260200182805461072a90612d95565b80156107755780601f1061074c57610100808354040283529160200191610775565b820191905f5260205f20905b81548152906001019060200180831161075857829003601f168201915b50505050509050919050565b846001600160a01b038116331461079b5761079b33611391565b6107a88686868686611448565b505050505050565b5f828152602081905260409020600101546107ca81611378565b6107d48383611494565b505050565b6001600160a01b03811633146108495760405162461bcd60e51b815260206004820152602f60248201527f416363657373436f6e74726f6c3a2063616e206f6e6c792072656e6f756e636560448201526e103937b632b9903337b91039b2b63360891b606482015260840161067f565b6106eb82826114b5565b600260065460ff16600281111561086c5761086c612dcd565b146108c55760405162461bcd60e51b815260206004820152602360248201527f7075626c696353616c653a207075626c69632073616c65206973206e6f74206c60448201526269766560e81b606482015260840161067f565b5f80845b80831015610a0d5760075f8888868181106108e6576108e6612de1565b9050602002013581526020019081526020015f205f015485858581811061090f5761090f612de1565b9050602002013561094389898781811061092b5761092b612de1565b905060200201355f9081526005602052604090205490565b61094d9190612e09565b11156109a65760405162461bcd60e51b815260206004820152602260248201527f7075626c696353616c653a206e6f7420656e6f75676820737570706c79206c65604482015261199d60f21b606482015260840161067f565b8484848181106109b8576109b8612de1565b9050602002013560075f8989878181106109d4576109d4612de1565b9050602002013581526020019081526020015f20600101546109f69190612e1c565b610a009083612e09565b91508260010192506108c9565b81341015610a5d5760405162461bcd60e51b815260206004820152601e60248201527f7075626c696353616c653a2053454e44204d4f524520455448455245554d0000604482015260640161067f565b610ad7338888808060200260200160405190810160405280939291908181526020018383602002808284375f9201919091525050604080516020808c0282810182019093528b82529093508b92508a9182918501908490808284375f920182905250604080516020810190915290815292506114d6915050565b50505050505050565b60608151835114610b455760405162461bcd60e51b815260206004820152602960248201527f455243313135353a206163636f756e747320616e6420696473206c656e677468604482015268040dad2e6dac2e8c6d60bb1b606482015260840161067f565b5f83516001600160401b03811115610b5f57610b5f6125fb565b604051908082528060200260200182016040528015610b88578160200160208202803683370190505b5090505f5b8451811015610bff57610bd2858281518110610bab57610bab612de1565b6020026020010151858381518110610bc557610bc5612de1565b6020026020010151610619565b828281518110610be457610be4612de1565b6020908102919091010152610bf881612e33565b9050610b8d565b509392505050565b5f80516020613395833981519152610c1e81611378565b60405147906001600160a01b0384169082156108fc029083905f818181858888f19350505050610c4c575f80fd5b6040518181527f5b6b431d4476a211bb7d41c20d1aab9ae2321deee0d20be3d9fc9b1093fa6e3d9060200160405180910390a1505050565b600160065460ff166002811115610c9d57610c9d612dcd565b14610cea5760405162461bcd60e51b815260206004820152601c60248201527f70726573616c653a2070726573616c65206973206e6f74206c69766500000000604482015260640161067f565b828114610d395760405162461bcd60e51b815260206004820152601d60248201527f70726573616c653a206c656e6774687320646f206e6f74206d61746368000000604482015260640161067f565b5f805b84821015610e5d5760075f878785818110610d5957610d59612de1565b9050602002013581526020019081526020015f205f0154848484818110610d8257610d82612de1565b90506020020135610d9e88888681811061092b5761092b612de1565b610da89190612e09565b1115610df65760405162461bcd60e51b815260206004820152601f60248201527f70726573616c653a206e6f7420656e6f75676820737570706c79206c65667400604482015260640161067f565b838383818110610e0857610e08612de1565b9050602002013560075f888886818110610e2457610e24612de1565b9050602002013581526020019081526020015f2060010154610e469190612e1c565b610e509082612e09565b9050816001019150610d3c565b80341015610ead5760405162461bcd60e51b815260206004820152601b60248201527f70726573616c653a2053454e44204d4f524520455448455245554d0000000000604482015260640161067f565b6107a8338787808060200260200160405190810160405280939291908181526020018383602002808284375f9201919091525050604080516020808b0282810182019093528a82529093508a9250899182918501908490808284375f920182905250604080516020810190915290815292506114d6915050565b5f80516020613395833981519152610f3e81611378565b8251825114610f9a5760405162461bcd60e51b815260206004820152602260248201527f736574546f6b656e446174613a204d69736d61746368656420696e206c656e676044820152610e8d60f31b606482015260840161067f565b5f5b835181101561110a57610fd3838281518110610fba57610fba612de1565b60200260200101515f9081526005602052604090205490565b848281518110610fe557610fe5612de1565b60200260200101515f0151101561106f5760405162461bcd60e51b815260206004820152604260248201527f736574546f6b656e446174613a206d6178537570706c79206d7573742067726560448201527f61746572207468616e206f7220657175616c20746f20746f74616c20737570706064820152616c7960f01b608482015260a40161067f565b83818151811061108157611081612de1565b602002602001015160075f85848151811061109e5761109e612de1565b602002602001015181526020019081526020015f205f820151815f0155602082015181600101559050508060010190507f84bc361fd6a7303dee3136df39093f1cc65a43fc28e4db98a82b67a7566cb774836040516110fd9190612aaa565b60405180910390a1610f9c565b50505050565b6001600160a01b03831633148061112c575061112c8333610570565b6111485760405162461bcd60e51b815260040161067f90612e4b565b6107d4838383611662565b5f82815260016020526040812061116a90836117f7565b9392505050565b5f918252602082815260408084206001600160a01b0393909316845291905290205460ff1690565b6106eb338383611802565b5f8181526001602052604081206106ac906118e1565b5f828152602081905260409020600101546111d481611378565b6107d483836114b5565b846001600160a01b03811633146111f8576111f833611391565b6107a886868686866118ea565b6001600160a01b03831633148061122157506112218333610570565b61123d5760405162461bcd60e51b815260040161067f90612e4b565b6107d483838361192f565b5f8051602061339583398151915261125f81611378565b6006805483919060ff1916600183600281111561127e5761127e612dcd565b02179055505050565b606081806001600160401b038111156112a2576112a26125fb565b6040519080825280602002602001820160405280156112cb578160200160208202803683370190505b5091505f5b81811015611312576112ed85858381811061092b5761092b612de1565b8382815181106112ff576112ff612de1565b60209081029190910101526001016112d0565b505092915050565b5f6001600160e01b03198216636cdb3d1360e11b14806106bc57506001600160e01b031982166303a24d0760e21b14806106ac57506106ac825b5f6001600160e01b03198216635a05180f60e01b14806106ac57506106ac82611a44565b6113828133611a78565b50565b60046106eb8282612ede565b6daaeb6d7670e522a718067333cd4e3b1561138257604051633185c44d60e21b81523060048201526001600160a01b03821660248201526daaeb6d7670e522a718067333cd4e9063c617113490604401602060405180830381865afa1580156113fc573d5f803e3d5ffd5b505050506040513d601f19601f820116820180604052508101906114209190612f99565b61138257604051633b79c77360e21b81526001600160a01b038216600482015260240161067f565b6001600160a01b03851633148061146457506114648533610570565b6114805760405162461bcd60e51b815260040161067f90612e4b565b61148d8585858585611ad1565b5050505050565b61149e8282611c71565b5f8281526001602052604090206107d49082611cf4565b6114bf8282611d08565b5f8281526001602052604090206107d49082611d6c565b6001600160a01b0384166115365760405162461bcd60e51b815260206004820152602160248201527f455243313135353a206d696e7420746f20746865207a65726f206164647265736044820152607360f81b606482015260840161067f565b81518351146115575760405162461bcd60e51b815260040161067f90612fb4565b33611566815f87878787611d80565b5f5b84518110156115fc5783818151811061158357611583612de1565b602002602001015160025f8784815181106115a0576115a0612de1565b602002602001015181526020019081526020015f205f886001600160a01b03166001600160a01b031681526020019081526020015f205f8282546115e49190612e09565b909155508190506115f481612e33565b915050611568565b50846001600160a01b03165f6001600160a01b0316826001600160a01b03167f4a39dc06d4c0dbc64b70af90fd698a233a518aa5d07e595d983b8c0526c8f7fb878760405161164c929190612ffc565b60405180910390a461148d815f87878787611d8e565b6001600160a01b0383166116885760405162461bcd60e51b815260040161067f90613029565b80518251146116a95760405162461bcd60e51b815260040161067f90612fb4565b5f3390506116c981855f868660405180602001604052805f815250611d80565b5f5b835181101561178c575f8482815181106116e7576116e7612de1565b602002602001015190505f84838151811061170457611704612de1565b6020908102919091018101515f8481526002835260408082206001600160a01b038c1683529093529190912054909150818110156117545760405162461bcd60e51b815260040161067f9061306c565b5f9283526002602090815260408085206001600160a01b038b168652909152909220910390558061178481612e33565b9150506116cb565b505f6001600160a01b0316846001600160a01b0316826001600160a01b03167f4a39dc06d4c0dbc64b70af90fd698a233a518aa5d07e595d983b8c0526c8f7fb86866040516117dc929190612ffc565b60405180910390a460408051602081019091525f905261110a565b5f61116a8383611ee8565b816001600160a01b0316836001600160a01b0316036118755760405162461bcd60e51b815260206004820152602960248201527f455243313135353a2073657474696e6720617070726f76616c20737461747573604482015268103337b91039b2b63360b91b606482015260840161067f565b6001600160a01b038381165f81815260036020908152604080832094871680845294825291829020805460ff191686151590811790915591519182527f17307eab39ab6107e8899845ad3d59bd9653f200f220920489ca2b5937696c31910160405180910390a3505050565b5f6106ac825490565b6001600160a01b03851633148061190657506119068533610570565b6119225760405162461bcd60e51b815260040161067f90612e4b565b61148d8585858585611f0e565b6001600160a01b0383166119555760405162461bcd60e51b815260040161067f90613029565b335f61196084612046565b90505f61196c84612046565b905061198a83875f858560405180602001604052805f815250611d80565b5f8581526002602090815260408083206001600160a01b038a168452909152902054848110156119cc5760405162461bcd60e51b815260040161067f9061306c565b5f8681526002602090815260408083206001600160a01b038b81168086529184528285208a8703905582518b81529384018a90529092908816917fc3d58168c5ae7397731d063d5bbf3d657854427343f4c083240f7aacaa2d0f62910160405180910390a460408051602081019091525f9052610ad7565b5f6001600160e01b03198216637965db0b60e01b14806106ac57506301ffc9a760e01b6001600160e01b03198316146106ac565b611a828282611171565b6106eb57611a8f8161208f565b611a9a8360206120a1565b604051602001611aab9291906130b0565b60408051601f198184030181529082905262461bcd60e51b825261067f9160040161276a565b8151835114611af25760405162461bcd60e51b815260040161067f90612fb4565b6001600160a01b038416611b185760405162461bcd60e51b815260040161067f90613124565b33611b27818787878787611d80565b5f5b8451811015611c0b575f858281518110611b4557611b45612de1565b602002602001015190505f858381518110611b6257611b62612de1565b6020908102919091018101515f8481526002835260408082206001600160a01b038e168352909352919091205490915081811015611bb25760405162461bcd60e51b815260040161067f90613169565b5f8381526002602090815260408083206001600160a01b038e8116855292528083208585039055908b16825281208054849290611bf0908490612e09565b9250508190555050505080611c0490612e33565b9050611b29565b50846001600160a01b0316866001600160a01b0316826001600160a01b03167f4a39dc06d4c0dbc64b70af90fd698a233a518aa5d07e595d983b8c0526c8f7fb8787604051611c5b929190612ffc565b60405180910390a46107a8818787878787611d8e565b611c7b8282611171565b6106eb575f828152602081815260408083206001600160a01b03851684529091529020805460ff19166001179055611cb03390565b6001600160a01b0316816001600160a01b0316837f2f8788117e7eff1d82e926ec794901d17c78024a50270940304540a733656f0d60405160405180910390a45050565b5f61116a836001600160a01b038416612236565b611d128282611171565b156106eb575f828152602081815260408083206001600160a01b0385168085529252808320805460ff1916905551339285917ff6391f5c32d9c69d2a47ea670b442974b53935d1edc7fd64eb21e047a839171b9190a45050565b5f61116a836001600160a01b038416612282565b6107a8868686868686612365565b6001600160a01b0384163b156107a85760405163bc197c8160e01b81526001600160a01b0385169063bc197c8190611dd290899089908890889088906004016131b3565b6020604051808303815f875af1925050508015611e0c575060408051601f3d908101601f19168201909252611e0991810190613210565b60015b611eb857611e1861322b565b806308c379a003611e515750611e2c613244565b80611e375750611e53565b8060405162461bcd60e51b815260040161067f919061276a565b505b60405162461bcd60e51b815260206004820152603460248201527f455243313135353a207472616e7366657220746f206e6f6e2d455243313135356044820152732932b1b2b4bb32b91034b6b83632b6b2b73a32b960611b606482015260840161067f565b6001600160e01b0319811663bc197c8160e01b14610ad75760405162461bcd60e51b815260040161067f906132cc565b5f825f018281548110611efd57611efd612de1565b905f5260205f200154905092915050565b6001600160a01b038416611f345760405162461bcd60e51b815260040161067f90613124565b335f611f3f85612046565b90505f611f4b85612046565b9050611f5b838989858589611d80565b5f8681526002602090815260408083206001600160a01b038c16845290915290205485811015611f9d5760405162461bcd60e51b815260040161067f90613169565b5f8781526002602090815260408083206001600160a01b038d8116855292528083208985039055908a16825281208054889290611fdb908490612e09565b909155505060408051888152602081018890526001600160a01b03808b16928c821692918816917fc3d58168c5ae7397731d063d5bbf3d657854427343f4c083240f7aacaa2d0f62910160405180910390a461203b848a8a8a8a8a6124d3565b505050505050505050565b6040805160018082528183019092526060915f91906020808301908036833701905050905082815f8151811061207e5761207e612de1565b602090810291909101015292915050565b60606106ac6001600160a01b03831660145b60605f6120af836002612e1c565b6120ba906002612e09565b6001600160401b038111156120d1576120d16125fb565b6040519080825280601f01601f1916602001820160405280156120fb576020820181803683370190505b509050600360fc1b815f8151811061211557612115612de1565b60200101906001600160f81b03191690815f1a905350600f60fb1b8160018151811061214357612143612de1565b60200101906001600160f81b03191690815f1a9053505f612165846002612e1c565b612170906001612e09565b90505b60018111156121e7576f181899199a1a9b1b9c1cb0b131b232b360811b85600f16601081106121a4576121a4612de1565b1a60f81b8282815181106121ba576121ba612de1565b60200101906001600160f81b03191690815f1a90535060049490941c936121e081613314565b9050612173565b50831561116a5760405162461bcd60e51b815260206004820181905260248201527f537472696e67733a20686578206c656e67746820696e73756666696369656e74604482015260640161067f565b5f81815260018301602052604081205461227b57508154600181810184555f8481526020808220909301849055845484825282860190935260409020919091556106ac565b505f6106ac565b5f818152600183016020526040812054801561235c575f6122a4600183613329565b85549091505f906122b790600190613329565b9050818114612316575f865f0182815481106122d5576122d5612de1565b905f5260205f200154905080875f0184815481106122f5576122f5612de1565b5f918252602080832090910192909255918252600188019052604090208390555b85548690806123275761232761333c565b600190038181905f5260205f20015f90559055856001015f8681526020019081526020015f205f9055600193505050506106ac565b5f9150506106ac565b6001600160a01b0385166123e8575f5b83518110156123e65782818151811061239057612390612de1565b602002602001015160055f8684815181106123ad576123ad612de1565b602002602001015181526020019081526020015f205f8282546123d09190612e09565b909155506123df905081612e33565b9050612375565b505b6001600160a01b0384166107a8575f5b8351811015610ad7575f84828151811061241457612414612de1565b602002602001015190505f84838151811061243157612431612de1565b602002602001015190505f60055f8481526020019081526020015f20549050818110156124b15760405162461bcd60e51b815260206004820152602860248201527f455243313135353a206275726e20616d6f756e74206578636565647320746f74604482015267616c537570706c7960c01b606482015260840161067f565b5f92835260056020526040909220910390556124cc81612e33565b90506123f8565b6001600160a01b0384163b156107a85760405163f23a6e6160e01b81526001600160a01b0385169063f23a6e61906125179089908990889088908890600401613350565b6020604051808303815f875af1925050508015612551575060408051601f3d908101601f1916820190925261254e91810190613210565b60015b61255d57611e1861322b565b6001600160e01b0319811663f23a6e6160e01b14610ad75760405162461bcd60e51b815260040161067f906132cc565b6001600160a01b0381168114611382575f80fd5b5f80604083850312156125b2575f80fd5b82356125bd8161258d565b946020939093013593505050565b6001600160e01b031981168114611382575f80fd5b5f602082840312156125f0575f80fd5b813561116a816125cb565b634e487b7160e01b5f52604160045260245ffd5b604081018181106001600160401b038211171561262e5761262e6125fb565b60405250565b601f8201601f191681016001600160401b0381118282101715612659576126596125fb565b6040525050565b5f6001600160401b03831115612678576126786125fb565b60405161268f601f8501601f191660200182612634565b8091508381528484840111156126a3575f80fd5b838360208301375f60208583010152509392505050565b5f602082840312156126ca575f80fd5b81356001600160401b038111156126df575f80fd5b8201601f810184136126ef575f80fd5b6126fe84823560208401612660565b949350505050565b5f60208284031215612716575f80fd5b5035919050565b5f5b8381101561273757818101518382015260200161271f565b50505f910152565b5f815180845261275681602086016020860161271d565b601f01601f19169290920160200192915050565b602081525f61116a602083018461273f565b5f6001600160401b03821115612794576127946125fb565b5060051b60200190565b5f82601f8301126127ad575f80fd5b813560206127ba8261277c565b6040516127c78282612634565b83815260059390931b85018201928281019150868411156127e6575f80fd5b8286015b8481101561280157803583529183019183016127ea565b509695505050505050565b5f82601f83011261281b575f80fd5b61116a83833560208501612660565b5f805f805f60a0868803121561283e575f80fd5b85356128498161258d565b945060208601356128598161258d565b935060408601356001600160401b0380821115612874575f80fd5b61288089838a0161279e565b94506060880135915080821115612895575f80fd5b6128a189838a0161279e565b935060808801359150808211156128b6575f80fd5b506128c38882890161280c565b9150509295509295909350565b5f80604083850312156128e1575f80fd5b8235915060208301356128f38161258d565b809150509250929050565b5f8083601f84011261290e575f80fd5b5081356001600160401b03811115612924575f80fd5b6020830191508360208260051b850101111561293e575f80fd5b9250929050565b5f805f8060408587031215612958575f80fd5b84356001600160401b038082111561296e575f80fd5b61297a888389016128fe565b90965094506020870135915080821115612992575f80fd5b5061299f878288016128fe565b95989497509550505050565b5f80604083850312156129bc575f80fd5b82356001600160401b03808211156129d2575f80fd5b818501915085601f8301126129e5575f80fd5b813560206129f28261277c565b6040516129ff8282612634565b83815260059390931b8501820192828101915089841115612a1e575f80fd5b948201945b83861015612a45578535612a368161258d565b82529482019490820190612a23565b96505086013592505080821115612a5a575f80fd5b50612a678582860161279e565b9150509250929050565b5f8151808452602080850194508084015f5b83811015612a9f57815187529582019590820190600101612a83565b509495945050505050565b602081525f61116a6020830184612a71565b5f60208284031215612acc575f80fd5b813561116a8161258d565b5f806040808486031215612ae9575f80fd5b83356001600160401b0380821115612aff575f80fd5b818601915086601f830112612b12575f80fd5b81356020612b1f8261277c565b8551612b2b8282612634565b83815260069390931b850182019282810191508a841115612b4a575f80fd5b948201945b83861015612b8c5786868c031215612b66575f8081fd5b8651612b718161260f565b86358152838701358482015282529486019490820190612b4f565b97505087013593505080831115612ba1575f80fd5b5050612a678582860161279e565b5f805f60608486031215612bc1575f80fd5b8335612bcc8161258d565b925060208401356001600160401b0380821115612be7575f80fd5b612bf38783880161279e565b93506040860135915080821115612c08575f80fd5b50612c158682870161279e565b9150509250925092565b5f8060408385031215612c30575f80fd5b50508035926020909101359150565b8015158114611382575f80fd5b5f8060408385031215612c5d575f80fd5b8235612c688161258d565b915060208301356128f381612c3f565b5f8060408385031215612c89575f80fd5b8235612c948161258d565b915060208301356128f38161258d565b5f805f805f60a08688031215612cb8575f80fd5b8535612cc38161258d565b94506020860135612cd38161258d565b9350604086013592506060860135915060808601356001600160401b03811115612cfb575f80fd5b6128c38882890161280c565b5f805f60608486031215612d19575f80fd5b8335612d248161258d565b95602085013595506040909401359392505050565b5f60208284031215612d49575f80fd5b81356003811061116a575f80fd5b5f8060208385031215612d68575f80fd5b82356001600160401b03811115612d7d575f80fd5b612d89858286016128fe565b90969095509350505050565b600181811c90821680612da957607f821691505b602082108103612dc757634e487b7160e01b5f52602260045260245ffd5b50919050565b634e487b7160e01b5f52602160045260245ffd5b634e487b7160e01b5f52603260045260245ffd5b634e487b7160e01b5f52601160045260245ffd5b808201808211156106ac576106ac612df5565b80820281158282048414176106ac576106ac612df5565b5f60018201612e4457612e44612df5565b5060010190565b6020808252602e908201527f455243313135353a2063616c6c6572206973206e6f7420746f6b656e206f776e60408201526d195c881bdc88185c1c1c9bdd995960921b606082015260800190565b601f8211156107d4575f81815260208120601f850160051c81016020861015612ebf5750805b601f850160051c820191505b818110156107a857828155600101612ecb565b81516001600160401b03811115612ef757612ef76125fb565b612f0b81612f058454612d95565b84612e99565b602080601f831160018114612f3e575f8415612f275750858301515b5f19600386901b1c1916600185901b1785556107a8565b5f85815260208120601f198616915b82811015612f6c57888601518255948401946001909101908401612f4d565b5085821015612f8957878501515f19600388901b60f8161c191681555b5050505050600190811b01905550565b5f60208284031215612fa9575f80fd5b815161116a81612c3f565b60208082526028908201527f455243313135353a2069647320616e6420616d6f756e7473206c656e677468206040820152670dad2e6dac2e8c6d60c31b606082015260800190565b604081525f61300e6040830185612a71565b82810360208401526130208185612a71565b95945050505050565b60208082526023908201527f455243313135353a206275726e2066726f6d20746865207a65726f206164647260408201526265737360e81b606082015260800190565b60208082526024908201527f455243313135353a206275726e20616d6f756e7420657863656564732062616c604082015263616e636560e01b606082015260800190565b7f416363657373436f6e74726f6c3a206163636f756e742000000000000000000081525f83516130e781601785016020880161271d565b7001034b99036b4b9b9b4b733903937b6329607d1b601791840191820152835161311881602884016020880161271d565b01602801949350505050565b60208082526025908201527f455243313135353a207472616e7366657220746f20746865207a65726f206164604082015264647265737360d81b606082015260800190565b6020808252602a908201527f455243313135353a20696e73756666696369656e742062616c616e636520666f60408201526939103a3930b739b332b960b11b606082015260800190565b6001600160a01b0386811682528516602082015260a0604082018190525f906131de90830186612a71565b82810360608401526131f08186612a71565b90508281036080840152613204818561273f565b98975050505050505050565b5f60208284031215613220575f80fd5b815161116a816125cb565b5f60033d11156132415760045f803e505f5160e01c5b90565b5f60443d10156132515790565b6040516003193d81016004833e81513d6001600160401b03816024840111818411171561328057505050505090565b82850191508151818111156132985750505050505090565b843d87010160208285010111156132b25750505050505090565b6132c160208286010187612634565b509095945050505050565b60208082526028908201527f455243313135353a204552433131353552656365697665722072656a656374656040820152676420746f6b656e7360c01b606082015260800190565b5f8161332257613322612df5565b505f190190565b818103818111156106ac576106ac612df5565b634e487b7160e01b5f52603160045260245ffd5b6001600160a01b03868116825285166020820152604081018490526060810183905260a0608082018190525f906133899083018461273f565b97965050505050505056fe9aa032fddc5828092899c540d004a5a5ff64ae9e644e14e3e1589b650db53b9ea26469706673582212202cd05b10d7fe2ffd40fcf22308dc624ee0dc87cfa090a7b37ae9cb4baf94fdd964736f6c63430008150033",
  "immutableReferences": {},
  "source": "// SPDX-License-Identifier: MIT\npragma solidity ^0.8.21;\n\nimport \"@openzeppelin/contracts/token/ERC1155/extensions/ERC1155Burnable.sol\";\nimport \"@openzeppelin/contracts/token/ERC1155/extensions/ERC1155Supply.sol\";\nimport {AccessControlEnumerable} from \"@openzeppelin/contracts/access/AccessControlEnumerable.sol\";\nimport \"./default_operator_contracts/DefaultOperatorFilterer.sol\";\n\n/// @title WDC Serial Killers\n/// @author Atlas C.O.R.P.\ncontract WDCSerialKillers is\n    AccessControlEnumerable,\n    ERC1155Burnable,\n    ERC1155Supply,\n    DefaultOperatorFilterer\n{\n    struct TokenData {\n        uint256 maxSupply;\n        uint256 price;\n    }\n\n    enum ContractState {\n        OFF,\n        PRESALE,\n        PUBLIC_SALE\n    }\n\n    ContractState contractState;\n\n    bytes32 public constant CONTRACT_MANAGER = keccak256(\"CONTRACT_MANAGER\");\n\n    mapping(uint256 tokenId => TokenData) public tokenData;\n\n    event Withdraw(uint256 _amount);\n    event TokensUpdated(uint256[] _tokenIds);\n\n    constructor(string memory _URI) ERC1155(_URI) {\n        _grantRole(DEFAULT_ADMIN_ROLE, msg.sender);\n        _grantRole(CONTRACT_MANAGER, msg.sender);\n    }\n\n    /// @param _ids array of token ID's wanting to purchase\n    /// @param _amounts array of quantities for each token ID to purchase\n    function publicSale(\n        uint256[] calldata _ids,\n        uint256[] calldata _amounts\n    ) external payable {\n        require(\n            contractState == ContractState.PUBLIC_SALE,\n            \"publicSale: public sale is not live\"\n        );\n\n        uint256 i = 0;\n        uint256 totalCost = 0;\n        uint256 idLength = _ids.length;\n        for (; i < idLength; ) {\n            require(\n                totalSupply(_ids[i]) + _amounts[i] <=\n                    tokenData[_ids[i]].maxSupply,\n                \"publicSale: not enough supply left\"\n            );\n            totalCost += tokenData[_ids[i]].price * _amounts[i];\n\n            unchecked {\n                ++i;\n            }\n        }\n\n        require(msg.value >= totalCost, \"publicSale: SEND MORE ETHEREUM\");\n\n        _mintBatch(msg.sender, _ids, _amounts, \"\");\n    }\n\n    /// @param _ids array of token ID's wanting to purchase\n    /// @param _amounts array of quantities for each token ID to purchase\n    function presale(\n        uint256[] calldata _ids,\n        uint256[] calldata _amounts\n    ) external payable {\n        require(\n            contractState == ContractState.PRESALE,\n            \"presale: presale is not live\"\n        );\n\n        require(\n            _ids.length == _amounts.length,\n            \"presale: lengths do not match\"\n        );\n\n        uint256 i = 0;\n        uint256 totalCost = 0;\n        for (; i < _ids.length; ) {\n            require(\n                totalSupply(_ids[i]) + _amounts[i] <=\n                    tokenData[_ids[i]].maxSupply,\n                \"presale: not enough supply left\"\n            );\n            totalCost += tokenData[_ids[i]].price * _amounts[i];\n\n            unchecked {\n                ++i;\n            }\n        }\n\n        require(msg.value >= totalCost, \"presale: SEND MORE ETHEREUM\");\n\n        _mintBatch(msg.sender, _ids, _amounts, \"\");\n    }\n\n    /// @param _state is the status of the contract\n    function setContractState(\n        ContractState _state\n    ) external onlyRole(CONTRACT_MANAGER) {\n        contractState = _state;\n    }\n\n    /// @notice withdraw tokens here\n    /// @param _destination is the address the CONTRACT_MANAGER sends ethereum balance\n    function withdraw(\n        address payable _destination\n    ) external onlyRole(CONTRACT_MANAGER) {\n        uint256 balance = address(this).balance;\n        require(_destination.send(balance));\n        emit Withdraw(balance);\n    }\n\n    /// @param _baseURI is a string that sets the metadata\n    function setURI(\n        string memory _baseURI\n    ) external onlyRole(CONTRACT_MANAGER) {\n        _setURI(_baseURI);\n    }\n\n    /// @param _tokenData is the supply and price data of the token\n    /// @param _tokenIds is the array of token ID's\n    /// should we add restrictions on price change for clarity for buyers but limits abiltity to move price up and down\n    function setTokenData(\n        TokenData[] memory _tokenData,\n        uint256[] memory _tokenIds\n    ) external onlyRole(CONTRACT_MANAGER) {\n        require(\n            _tokenIds.length == _tokenData.length,\n            \"setTokenData: Mismatched in length\"\n        );\n        uint256 i = 0;\n        for (; i < _tokenData.length; ) {\n            require(\n                _tokenData[i].maxSupply >= totalSupply(_tokenIds[i]),\n                \"setTokenData: maxSupply must greater than or equal to total supply\"\n            );\n            tokenData[_tokenIds[i]] = _tokenData[i];\n\n            unchecked {\n                ++i;\n            }\n            emit TokensUpdated(_tokenIds);\n        }\n    }\n\n    /// @param _ids is an array of token IDs to get the supply left from each token ID\n    function getSupply(\n        uint256[] calldata _ids\n    ) external view returns (uint256[] memory supplies) {\n        uint256 length = _ids.length;\n        supplies = new uint256[](length);\n        uint256 i;\n        for (; i < length; ) {\n            supplies[i] = totalSupply(_ids[i]);\n            unchecked {\n                ++i;\n            }\n        }\n    }\n\n    function safeBatchTransferFrom(\n        address from,\n        address to,\n        uint256[] memory ids,\n        uint256[] memory amounts,\n        bytes memory data\n    ) public override onlyAllowedOperator(from) {\n        super.safeBatchTransferFrom(from, to, ids, amounts, data);\n    }\n\n    function safeTransferFrom(\n        address from,\n        address to,\n        uint256 tokenId,\n        uint256 amount,\n        bytes memory data\n    ) public override onlyAllowedOperator(from) {\n        super.safeTransferFrom(from, to, tokenId, amount, data);\n    }\n\n    function supportsInterface(\n        bytes4 interfaceId\n    )\n        public\n        view\n        virtual\n        override(ERC1155, AccessControlEnumerable)\n        returns (bool)\n    {\n        return (ERC1155.supportsInterface(interfaceId) ||\n            AccessControlEnumerable.supportsInterface(interfaceId));\n    }\n\n    function _beforeTokenTransfer(\n        address operator,\n        address from,\n        address to,\n        uint256[] memory ids,\n        uint256[] memory amounts,\n        bytes memory data\n    ) internal virtual override(ERC1155, ERC1155Supply) {\n        ERC1155Supply._beforeTokenTransfer(\n            operator,\n            from,\n            to,\n            ids,\n            amounts,\n            data\n        );\n    }\n}\n",
  "sourcePath": "/Users/atlas-ryan/Downloads/projects/serial-killers-contract/contracts/WDCSerialKillers.sol",
  "compiler": {
    "name": "solc",
    "version": "0.8.21+commit.d9974bed.Emscripten.clang"
  },
  "schemaVersion": "3.4.13",
  "updatedAt": "2023-08-31T17:21:02.126Z",
  "networkType": "ethereum",
  "devdoc": {
    "author": "Atlas C.O.R.P.",
    "errors": {
      "OperatorNotAllowed(address)": [
        {
          "details": "Emitted when an operator is not allowed."
        }
      ]
    },
    "events": {
      "ApprovalForAll(address,address,bool)": {
        "details": "Emitted when `account` grants or revokes permission to `operator` to transfer their tokens, according to `approved`."
      },
      "RoleAdminChanged(bytes32,bytes32,bytes32)": {
        "details": "Emitted when `newAdminRole` is set as ``role``'s admin role, replacing `previousAdminRole` `DEFAULT_ADMIN_ROLE` is the starting admin for all roles, despite {RoleAdminChanged} not being emitted signaling this. _Available since v3.1._"
      },
      "RoleGranted(bytes32,address,address)": {
        "details": "Emitted when `account` is granted `role`. `sender` is the account that originated the contract call, an admin role bearer except when using {AccessControl-_setupRole}."
      },
      "RoleRevoked(bytes32,address,address)": {
        "details": "Emitted when `account` is revoked `role`. `sender` is the account that originated the contract call:   - if using `revokeRole`, it is the admin role bearer   - if using `renounceRole`, it is the role bearer (i.e. `account`)"
      },
      "TransferBatch(address,address,address,uint256[],uint256[])": {
        "details": "Equivalent to multiple {TransferSingle} events, where `operator`, `from` and `to` are the same for all transfers."
      },
      "TransferSingle(address,address,address,uint256,uint256)": {
        "details": "Emitted when `value` tokens of token type `id` are transferred from `from` to `to` by `operator`."
      },
      "URI(string,uint256)": {
        "details": "Emitted when the URI for token type `id` changes to `value`, if it is a non-programmatic URI. If an {URI} event was emitted for `id`, the standard https://eips.ethereum.org/EIPS/eip-1155#metadata-extensions[guarantees] that `value` will equal the value returned by {IERC1155MetadataURI-uri}."
      }
    },
    "kind": "dev",
    "methods": {
      "balanceOf(address,uint256)": {
        "details": "See {IERC1155-balanceOf}. Requirements: - `account` cannot be the zero address."
      },
      "balanceOfBatch(address[],uint256[])": {
        "details": "See {IERC1155-balanceOfBatch}. Requirements: - `accounts` and `ids` must have the same length."
      },
      "exists(uint256)": {
        "details": "Indicates whether any token exist with a given id, or not."
      },
      "getRoleAdmin(bytes32)": {
        "details": "Returns the admin role that controls `role`. See {grantRole} and {revokeRole}. To change a role's admin, use {_setRoleAdmin}."
      },
      "getRoleMember(bytes32,uint256)": {
        "details": "Returns one of the accounts that have `role`. `index` must be a value between 0 and {getRoleMemberCount}, non-inclusive. Role bearers are not sorted in any particular way, and their ordering may change at any point. WARNING: When using {getRoleMember} and {getRoleMemberCount}, make sure you perform all queries on the same block. See the following https://forum.openzeppelin.com/t/iterating-over-elements-on-enumerableset-in-openzeppelin-contracts/2296[forum post] for more information."
      },
      "getRoleMemberCount(bytes32)": {
        "details": "Returns the number of accounts that have `role`. Can be used together with {getRoleMember} to enumerate all bearers of a role."
      },
      "getSupply(uint256[])": {
        "params": {
          "_ids": "is an array of token IDs to get the supply left from each token ID"
        }
      },
      "grantRole(bytes32,address)": {
        "details": "Grants `role` to `account`. If `account` had not been already granted `role`, emits a {RoleGranted} event. Requirements: - the caller must have ``role``'s admin role. May emit a {RoleGranted} event."
      },
      "hasRole(bytes32,address)": {
        "details": "Returns `true` if `account` has been granted `role`."
      },
      "isApprovedForAll(address,address)": {
        "details": "See {IERC1155-isApprovedForAll}."
      },
      "presale(uint256[],uint256[])": {
        "params": {
          "_amounts": "array of quantities for each token ID to purchase",
          "_ids": "array of token ID's wanting to purchase"
        }
      },
      "publicSale(uint256[],uint256[])": {
        "params": {
          "_amounts": "array of quantities for each token ID to purchase",
          "_ids": "array of token ID's wanting to purchase"
        }
      },
      "renounceRole(bytes32,address)": {
        "details": "Revokes `role` from the calling account. Roles are often managed via {grantRole} and {revokeRole}: this function's purpose is to provide a mechanism for accounts to lose their privileges if they are compromised (such as when a trusted device is misplaced). If the calling account had been revoked `role`, emits a {RoleRevoked} event. Requirements: - the caller must be `account`. May emit a {RoleRevoked} event."
      },
      "revokeRole(bytes32,address)": {
        "details": "Revokes `role` from `account`. If `account` had been granted `role`, emits a {RoleRevoked} event. Requirements: - the caller must have ``role``'s admin role. May emit a {RoleRevoked} event."
      },
      "safeBatchTransferFrom(address,address,uint256[],uint256[],bytes)": {
        "details": "See {IERC1155-safeBatchTransferFrom}."
      },
      "setApprovalForAll(address,bool)": {
        "details": "See {IERC1155-setApprovalForAll}."
      },
      "setContractState(uint8)": {
        "params": {
          "_state": "is the status of the contract"
        }
      },
      "setTokenData((uint256,uint256)[],uint256[])": {
        "params": {
          "_tokenData": "is the supply and price data of the token",
          "_tokenIds": "is the array of token ID's should we add restrictions on price change for clarity for buyers but limits abiltity to move price up and down"
        }
      },
      "setURI(string)": {
        "params": {
          "_baseURI": "is a string that sets the metadata"
        }
      },
      "totalSupply(uint256)": {
        "details": "Total amount of tokens in with a given id."
      },
      "uri(uint256)": {
        "details": "See {IERC1155MetadataURI-uri}. This implementation returns the same URI for *all* token types. It relies on the token type ID substitution mechanism https://eips.ethereum.org/EIPS/eip-1155#metadata[defined in the EIP]. Clients calling this function must replace the `\\{id\\}` substring with the actual token type ID."
      },
      "withdraw(address)": {
        "params": {
          "_destination": "is the address the CONTRACT_MANAGER sends ethereum balance"
        }
      }
    },
    "title": "WDC Serial Killers",
    "version": 1
  },
  "userdoc": {
    "kind": "user",
    "methods": {
      "withdraw(address)": {
        "notice": "withdraw tokens here"
      }
    },
    "version": 1
  }
}